{
  "contractName": "Consumer",
  "abi": [
    {
      "constant": true,
      "inputs": [],
      "name": "claim",
      "outputs": [
        {
          "name": "resourceLink",
          "type": "string"
        },
        {
          "name": "priceAmount",
          "type": "int256"
        },
        {
          "name": "waitTime",
          "type": "uint256"
        }
      ],
      "payable": false,
      "stateMutability": "view",
      "type": "function"
    },
    {
      "constant": true,
      "inputs": [],
      "name": "claimNo",
      "outputs": [
        {
          "name": "",
          "type": "uint256"
        }
      ],
      "payable": false,
      "stateMutability": "view",
      "type": "function"
    },
    {
      "inputs": [],
      "payable": false,
      "stateMutability": "nonpayable",
      "type": "constructor"
    },
    {
      "anonymous": false,
      "inputs": [
        {
          "indexed": false,
          "name": "_claimNo",
          "type": "uint256"
        }
      ],
      "name": "ClaimEvent",
      "type": "event"
    },
    {
      "constant": false,
      "inputs": [
        {
          "name": "_resourceLink",
          "type": "string"
        },
        {
          "name": "_priceAmount",
          "type": "int256"
        },
        {
          "name": "_waitTime",
          "type": "uint256"
        }
      ],
      "name": "createClaim",
      "outputs": [],
      "payable": false,
      "stateMutability": "nonpayable",
      "type": "function"
    }
  ],
  "bytecode": "0x608060405234801561001057600080fd5b506103a6806100206000396000f300608060405260043610610057576000357c0100000000000000000000000000000000000000000000000000000000900463ffffffff1680634e71d92d1461005c5780639cbbe2bc146100fa578063e0f958a714610125575b600080fd5b34801561006857600080fd5b506100716101a2565b6040518080602001848152602001838152602001828103825285818151815260200191508051906020019080838360005b838110156100bd5780820151818401526020810190506100a2565b50505050905090810190601f1680156100ea5780820380516001836020036101000a031916815260200191505b5094505050505060405180910390f35b34801561010657600080fd5b5061010f610252565b6040518082815260200191505060405180910390f35b34801561013157600080fd5b506101a0600480360381019080803590602001908201803590602001908080601f01602080910402602001604051908101604052809392919081815260200183838082843782019150505050505091929192908035906020019092919080359060200190929190505050610258565b005b6000806000018054600181600116156101000203166002900480601f01602080910402602001604051908101604052809291908181526020018280546001816001161561010002031660029004801561023c5780601f106102115761010080835404028352916020019161023c565b820191906000526020600020905b81548152906001019060200180831161021f57829003601f168201915b5050505050908060010154908060020154905083565b60035481565b600360008154809291906001019190505550826000800190805190602001906102829291906102d5565b5081600060010181905550806000600201819055507f79c46aa1e9414f1ec17fe2ddf0a792ed052464f117504d03be80e05734ce37c86003546040518082815260200191505060405180910390a1505050565b828054600181600116156101000203166002900490600052602060002090601f016020900481019282601f1061031657805160ff1916838001178555610344565b82800160010185558215610344579182015b82811115610343578251825591602001919060010190610328565b5b5090506103519190610355565b5090565b61037791905b8082111561037357600081600090555060010161035b565b5090565b905600a165627a7a72305820a8924f4f161619274ebd765d86a9067c2357aef439eee42ebaa87c8f1774b9d80029",
  "source": "pragma solidity ^0.4.2;\r\n\r\ncontract Consumer {\r\n    struct Claim {\r\n        string resourceLink;\r\n        int256 priceAmount;\r\n        uint256 waitTime;\r\n        \r\n    }\r\n    Claim public claim;\r\n    uint256 public claimNo;\r\n    \r\n    event ClaimEvent(uint256 _claimNo);\r\n    constructor() public {\r\n        \r\n    }\r\n    \r\n    function createClaim (string _resourceLink,int256 _priceAmount, uint256 _waitTime){\r\n        claimNo++;\r\n        claim.resourceLink =_resourceLink;\r\n        claim.priceAmount=_priceAmount;\r\n        claim.waitTime=_waitTime;\r\n        ClaimEvent(claimNo);\r\n    }\r\n}",
  "sourcePath": "E:\\BlockChain\\Hackathon\\stopFakingIt\\contracts\\Consumer.sol",
  "compiler": {
    "name": "solc",
    "version": "0.4.24+commit.e67f0147.Emscripten.clang"
  },
  "schemaVersion": "2.0.1",
  "updatedAt": "2018-10-12T07:45:26.755Z"
}