{
  "contractName": "Consumer",
  "abi": [
    {
      "constant": true,
      "inputs": [],
      "name": "claimCount",
      "outputs": [
        {
          "name": "",
          "type": "uint256"
        }
      ],
      "payable": false,
      "stateMutability": "view",
      "type": "function"
    },
    {
      "constant": true,
      "inputs": [
        {
          "name": "",
          "type": "uint256"
        }
      ],
      "name": "claims",
      "outputs": [
        {
          "name": "resourceLink",
          "type": "string"
        },
        {
          "name": "priceAmount",
          "type": "int256"
        },
        {
          "name": "waitTime",
          "type": "uint256"
        },
        {
          "name": "consumerAddress",
          "type": "address"
        }
      ],
      "payable": false,
      "stateMutability": "view",
      "type": "function"
    },
    {
      "inputs": [],
      "payable": false,
      "stateMutability": "nonpayable",
      "type": "constructor"
    },
    {
      "anonymous": false,
      "inputs": [
        {
          "indexed": false,
          "name": "_claimNo",
          "type": "uint256"
        }
      ],
      "name": "ClaimEvent",
      "type": "event"
    },
    {
      "constant": false,
      "inputs": [
        {
          "name": "_resourceLink",
          "type": "string"
        },
        {
          "name": "_priceAmount",
          "type": "int256"
        },
        {
          "name": "_waitTime",
          "type": "uint256"
        },
        {
          "name": "_consumerAddress",
          "type": "address"
        }
      ],
      "name": "createClaim",
      "outputs": [
        {
          "name": "",
          "type": "uint256"
        }
      ],
      "payable": false,
      "stateMutability": "nonpayable",
      "type": "function"
    }
  ],
  "bytecode": "0x608060405234801561001057600080fd5b506104f2806100206000396000f300608060405260043610610057576000357c0100000000000000000000000000000000000000000000000000000000900463ffffffff168063329ed8131461005c5780638da4d3c91461010d578063a888c2cd14610138575b600080fd5b34801561006857600080fd5b506100f7600480360381019080803590602001908201803590602001908080601f01602080910402602001604051908101604052809392919081815260200183838082843782019150505050505091929192908035906020019092919080359060200190929190803573ffffffffffffffffffffffffffffffffffffffff16906020019092919050505061021f565b6040518082815260200191505060405180910390f35b34801561011957600080fd5b50610122610333565b6040518082815260200191505060405180910390f35b34801561014457600080fd5b5061016360048036038101908080359060200190929190505050610339565b60405180806020018581526020018481526020018373ffffffffffffffffffffffffffffffffffffffff1673ffffffffffffffffffffffffffffffffffffffff168152602001828103825286818151815260200191508051906020019080838360005b838110156101e15780820151818401526020810190506101c6565b50505050905090810190601f16801561020e5780820380516001836020036101000a031916815260200191505b509550505050505060405180910390f35b6000600160008154809291906001019190505550846000806001548152602001908152602001600020600001908051906020019061025e929190610421565b50836000806001548152602001908152602001600020600101819055508260008060015481526020019081526020016000206002018190555081600080600154815260200190815260200160002060030160006101000a81548173ffffffffffffffffffffffffffffffffffffffff021916908373ffffffffffffffffffffffffffffffffffffffff1602179055507f79c46aa1e9414f1ec17fe2ddf0a792ed052464f117504d03be80e05734ce37c86001546040518082815260200191505060405180910390a16001549050949350505050565b60015481565b6000602052806000526040600020600091509050806000018054600181600116156101000203166002900480601f0160208091040260200160405190810160405280929190818152602001828054600181600116156101000203166002900480156103e55780601f106103ba576101008083540402835291602001916103e5565b820191906000526020600020905b8154815290600101906020018083116103c857829003601f168201915b5050505050908060010154908060020154908060030160009054906101000a900473ffffffffffffffffffffffffffffffffffffffff16905084565b828054600181600116156101000203166002900490600052602060002090601f016020900481019282601f1061046257805160ff1916838001178555610490565b82800160010185558215610490579182015b8281111561048f578251825591602001919060010190610474565b5b50905061049d91906104a1565b5090565b6104c391905b808211156104bf5760008160009055506001016104a7565b5090565b905600a165627a7a723058208ff05eff5a83927585b07f21b7e718e94ee89e688df568819be1efccd225046a0029",
  "source": "pragma solidity ^0.4.2;\r\n\r\ncontract Consumer {\r\n    struct Claim {\r\n        string resourceLink;\r\n        int256 priceAmount;\r\n        uint256 waitTime;\r\n        address consumerAddress;\r\n    }\r\n    mapping(uint256 => Claim) public claims;\r\n    \r\n    uint256 public claimCount;\r\n    event ClaimEvent(uint256 _claimNo);\r\n    constructor() public{\r\n        \r\n    }\r\n    \r\n    function createClaim (string _resourceLink,int256 _priceAmount, uint256 _waitTime,address _consumerAddress) returns (uint256) {\r\n        claimCount++;\r\n        claims[claimCount].resourceLink =_resourceLink;\r\n        claims[claimCount].priceAmount=_priceAmount;\r\n        claims[claimCount].waitTime=_waitTime;\r\n        claims[claimCount].consumerAddress=_consumerAddress;\r\n        emit ClaimEvent(claimCount);\r\n        return claimCount;\r\n    }\r\n}",
  "sourcePath": "E:\\BlockChain\\Hackathon\\stopFakingIt\\contracts\\Consumer.sol",
  "compiler": {
    "name": "solc",
    "version": "0.4.24+commit.e67f0147.Emscripten.clang"
  },
  "schemaVersion": "2.0.1",
  "updatedAt": "2018-10-13T05:45:43.500Z"
}